{
  "_format": "hh-sol-artifact-1",
  "contractName": "Voters",
  "sourceName": "contracts/Voters.sol",
  "abi": [
    {
      "inputs": [
        {
          "internalType": "uint16[]",
          "name": "voterIds",
          "type": "uint16[]"
        },
        {
          "internalType": "string[]",
          "name": "names",
          "type": "string[]"
        },
        {
          "internalType": "string[]",
          "name": "mobileNums",
          "type": "string[]"
        }
      ],
      "stateMutability": "nonpayable",
      "type": "constructor"
    },
    {
      "anonymous": false,
      "inputs": [
        {
          "indexed": false,
          "internalType": "string",
          "name": "voterName",
          "type": "string"
        },
        {
          "indexed": false,
          "internalType": "string",
          "name": "voterMobile",
          "type": "string"
        },
        {
          "indexed": false,
          "internalType": "uint16",
          "name": "voterId",
          "type": "uint16"
        }
      ],
      "name": "NewVoter",
      "type": "event"
    },
    {
      "anonymous": false,
      "inputs": [
        {
          "components": [
            {
              "internalType": "string",
              "name": "name",
              "type": "string"
            },
            {
              "internalType": "string",
              "name": "mobile",
              "type": "string"
            },
            {
              "internalType": "uint16",
              "name": "voterId",
              "type": "uint16"
            },
            {
              "internalType": "bool",
              "name": "voted",
              "type": "bool"
            }
          ],
          "indexed": false,
          "internalType": "struct Voters.Voter",
          "name": "voter",
          "type": "tuple"
        }
      ],
      "name": "VoterStatus",
      "type": "event"
    },
    {
      "inputs": [
        {
          "internalType": "string",
          "name": "voterName",
          "type": "string"
        },
        {
          "internalType": "string",
          "name": "voterMobile",
          "type": "string"
        },
        {
          "internalType": "uint16",
          "name": "voterId",
          "type": "uint16"
        }
      ],
      "name": "addVoter",
      "outputs": [],
      "stateMutability": "nonpayable",
      "type": "function"
    },
    {
      "inputs": [],
      "name": "administrator",
      "outputs": [
        {
          "internalType": "address",
          "name": "",
          "type": "address"
        }
      ],
      "stateMutability": "view",
      "type": "function"
    },
    {
      "inputs": [
        {
          "internalType": "uint16",
          "name": "_voterId",
          "type": "uint16"
        }
      ],
      "name": "getVoter",
      "outputs": [
        {
          "components": [
            {
              "internalType": "string",
              "name": "name",
              "type": "string"
            },
            {
              "internalType": "string",
              "name": "mobile",
              "type": "string"
            },
            {
              "internalType": "uint16",
              "name": "voterId",
              "type": "uint16"
            },
            {
              "internalType": "bool",
              "name": "voted",
              "type": "bool"
            }
          ],
          "internalType": "struct Voters.Voter",
          "name": "",
          "type": "tuple"
        }
      ],
      "stateMutability": "view",
      "type": "function"
    },
    {
      "inputs": [
        {
          "internalType": "uint16",
          "name": "_voterId",
          "type": "uint16"
        }
      ],
      "name": "updateVoter",
      "outputs": [],
      "stateMutability": "nonpayable",
      "type": "function"
    },
    {
      "inputs": [
        {
          "internalType": "uint16",
          "name": "",
          "type": "uint16"
        }
      ],
      "name": "voter",
      "outputs": [
        {
          "internalType": "string",
          "name": "name",
          "type": "string"
        },
        {
          "internalType": "string",
          "name": "mobile",
          "type": "string"
        },
        {
          "internalType": "uint16",
          "name": "voterId",
          "type": "uint16"
        },
        {
          "internalType": "bool",
          "name": "voted",
          "type": "bool"
        }
      ],
      "stateMutability": "view",
      "type": "function"
    }
  ],
  "bytecode": "0x60806040523480156200001157600080fd5b5060405162001c6138038062001c6183398181016040528101906200003791906200063a565b33600160006101000a81548173ffffffffffffffffffffffffffffffffffffffff021916908373ffffffffffffffffffffffffffffffffffffffff16021790555060005b835181101562000175576000806000868481518110620000a0576200009f620006f3565b5b602002602001015161ffff1661ffff1681526020019081526020016000209050838281518110620000d657620000d5620006f3565b5b6020026020010151816000019081620000f091906200096d565b50828281518110620001075762000106620006f3565b5b60200260200101518160010190816200012191906200096d565b50848281518110620001385762000137620006f3565b5b60200260200101518160020160006101000a81548161ffff021916908361ffff1602179055505080806200016c9062000a83565b9150506200007b565b50620001c16040518060400160405280601981526020017f566f7465727320436f6e737472616374204465706c6f79656400000000000000815250620001ca60201b620005e41760201c565b50505062000b46565b6200026a81604051602401620001e1919062000b22565b6040516020818303038152906040527f41304fac000000000000000000000000000000000000000000000000000000007bffffffffffffffffffffffffffffffffffffffffffffffffffffffff19166020820180517bffffffffffffffffffffffffffffffffffffffffffffffffffffffff83818316178352505050506200026d60201b60201c565b50565b60008151905060006a636f6e736f6c652e6c6f679050602083016000808483855afa5050505050565b6000604051905090565b600080fd5b600080fd5b600080fd5b6000601f19601f8301169050919050565b7f4e487b7100000000000000000000000000000000000000000000000000000000600052604160045260246000fd5b620002fa82620002af565b810181811067ffffffffffffffff821117156200031c576200031b620002c0565b5b80604052505050565b60006200033162000296565b90506200033f8282620002ef565b919050565b600067ffffffffffffffff821115620003625762000361620002c0565b5b602082029050602081019050919050565b600080fd5b600061ffff82169050919050565b620003918162000378565b81146200039d57600080fd5b50565b600081519050620003b18162000386565b92915050565b6000620003ce620003c88462000344565b62000325565b90508083825260208201905060208402830185811115620003f457620003f362000373565b5b835b818110156200042157806200040c8882620003a0565b845260208401935050602081019050620003f6565b5050509392505050565b600082601f830112620004435762000442620002aa565b5b815162000455848260208601620003b7565b91505092915050565b600067ffffffffffffffff8211156200047c576200047b620002c0565b5b602082029050602081019050919050565b600080fd5b600067ffffffffffffffff821115620004b057620004af620002c0565b5b620004bb82620002af565b9050602081019050919050565b60005b83811015620004e8578082015181840152602081019050620004cb565b60008484015250505050565b60006200050b620005058462000492565b62000325565b9050828152602081018484840111156200052a57620005296200048d565b5b62000537848285620004c8565b509392505050565b600082601f830112620005575762000556620002aa565b5b815162000569848260208601620004f4565b91505092915050565b60006200058962000583846200045e565b62000325565b90508083825260208201905060208402830185811115620005af57620005ae62000373565b5b835b81811015620005fd57805167ffffffffffffffff811115620005d857620005d7620002aa565b5b808601620005e789826200053f565b85526020850194505050602081019050620005b1565b5050509392505050565b600082601f8301126200061f576200061e620002aa565b5b81516200063184826020860162000572565b91505092915050565b600080600060608486031215620006565762000655620002a0565b5b600084015167ffffffffffffffff811115620006775762000676620002a5565b5b62000685868287016200042b565b935050602084015167ffffffffffffffff811115620006a957620006a8620002a5565b5b620006b78682870162000607565b925050604084015167ffffffffffffffff811115620006db57620006da620002a5565b5b620006e98682870162000607565b9150509250925092565b7f4e487b7100000000000000000000000000000000000000000000000000000000600052603260045260246000fd5b600081519050919050565b7f4e487b7100000000000000000000000000000000000000000000000000000000600052602260045260246000fd5b600060028204905060018216806200077557607f821691505b6020821081036200078b576200078a6200072d565b5b50919050565b60008190508160005260206000209050919050565b60006020601f8301049050919050565b600082821b905092915050565b600060088302620007f57fffffffffffffffffffffffffffffffffffffffffffffffffffffffffffffffff82620007b6565b620008018683620007b6565b95508019841693508086168417925050509392505050565b6000819050919050565b6000819050919050565b60006200084e62000848620008428462000819565b62000823565b62000819565b9050919050565b6000819050919050565b6200086a836200082d565b62000882620008798262000855565b848454620007c3565b825550505050565b600090565b620008996200088a565b620008a68184846200085f565b505050565b5b81811015620008ce57620008c26000826200088f565b600181019050620008ac565b5050565b601f8211156200091d57620008e78162000791565b620008f284620007a6565b8101602085101562000902578190505b6200091a6200091185620007a6565b830182620008ab565b50505b505050565b600082821c905092915050565b6000620009426000198460080262000922565b1980831691505092915050565b60006200095d83836200092f565b9150826002028217905092915050565b620009788262000722565b67ffffffffffffffff811115620009945762000993620002c0565b5b620009a082546200075c565b620009ad828285620008d2565b600060209050601f831160018114620009e55760008415620009d0578287015190505b620009dc85826200094f565b86555062000a4c565b601f198416620009f58662000791565b60005b8281101562000a1f57848901518255600182019150602085019450602081019050620009f8565b8683101562000a3f578489015162000a3b601f8916826200092f565b8355505b6001600288020188555050505b505050505050565b7f4e487b7100000000000000000000000000000000000000000000000000000000600052601160045260246000fd5b600062000a908262000819565b91507fffffffffffffffffffffffffffffffffffffffffffffffffffffffffffffffff820362000ac55762000ac462000a54565b5b600182019050919050565b600082825260208201905092915050565b600062000aee8262000722565b62000afa818562000ad0565b935062000b0c818560208601620004c8565b62000b1781620002af565b840191505092915050565b6000602082019050818103600083015262000b3e818462000ae1565b905092915050565b61110b8062000b566000396000f3fe608060405234801561001057600080fd5b50600436106100575760003560e01c80630830ac5d1461005c5780636cfff0b71461008f578063a4e5f913146100ab578063b605e4ca146100db578063f53d0a8e146100f7575b600080fd5b61007660048036038101906100719190610722565b610115565b6040516100869493929190610809565b60405180910390f35b6100a960048036038101906100a49190610722565b610270565b005b6100c560048036038101906100c09190610722565b6102f9565b6040516100d2919061092e565b60405180910390f35b6100f560048036038101906100f09190610a85565b61048c565b005b6100ff6105be565b60405161010c9190610b51565b60405180910390f35b600060205280600052604060002060009150905080600001805461013890610b9b565b80601f016020809104026020016040519081016040528092919081815260200182805461016490610b9b565b80156101b15780601f10610186576101008083540402835291602001916101b1565b820191906000526020600020905b81548152906001019060200180831161019457829003601f168201915b5050505050908060010180546101c690610b9b565b80601f01602080910402602001604051908101604052809291908181526020018280546101f290610b9b565b801561023f5780601f106102145761010080835404028352916020019161023f565b820191906000526020600020905b81548152906001019060200180831161022257829003601f168201915b5050505050908060020160009054906101000a900461ffff16908060020160029054906101000a900460ff16905084565b60016000808361ffff1661ffff16815260200190815260200160002060020160026101000a81548160ff0219169083151502179055507ff4c738411cbd24c1c6f16843fe7cf0ff94cd7b5238931950db936c62ee243a076000808361ffff1661ffff1681526020019081526020016000206040516102ee9190610d47565b60405180910390a150565b6103016106a6565b6000808361ffff1661ffff16815260200190815260200160002060405180608001604052908160008201805461033690610b9b565b80601f016020809104026020016040519081016040528092919081815260200182805461036290610b9b565b80156103af5780601f10610384576101008083540402835291602001916103af565b820191906000526020600020905b81548152906001019060200180831161039257829003601f168201915b505050505081526020016001820180546103c890610b9b565b80601f01602080910402602001604051908101604052809291908181526020018280546103f490610b9b565b80156104415780601f1061041657610100808354040283529160200191610441565b820191906000526020600020905b81548152906001019060200180831161042457829003601f168201915b505050505081526020016002820160009054906101000a900461ffff1661ffff1661ffff1681526020016002820160029054906101000a900460ff1615151515815250509050919050565b600160009054906101000a900473ffffffffffffffffffffffffffffffffffffffff1673ffffffffffffffffffffffffffffffffffffffff163373ffffffffffffffffffffffffffffffffffffffff161461051c576040517f08c379a000000000000000000000000000000000000000000000000000000000815260040161051390610ddb565b60405180910390fd5b60008060008361ffff1661ffff16815260200190815260200160002090508381600001908161054b9190610f9c565b508281600101908161055d9190610f9c565b50818160020160006101000a81548161ffff021916908361ffff1602179055507f34f21ecba8d75ca90470a292f3c51724a34f4a4ee4963869b6b1c249358bb3dd8484846040516105b09392919061106e565b60405180910390a150505050565b600160009054906101000a900473ffffffffffffffffffffffffffffffffffffffff1681565b61067a816040516024016105f891906110b3565b6040516020818303038152906040527f41304fac000000000000000000000000000000000000000000000000000000007bffffffffffffffffffffffffffffffffffffffffffffffffffffffff19166020820180517bffffffffffffffffffffffffffffffffffffffffffffffffffffffff838183161783525050505061067d565b50565b60008151905060006a636f6e736f6c652e6c6f679050602083016000808483855afa5050505050565b60405180608001604052806060815260200160608152602001600061ffff1681526020016000151581525090565b6000604051905090565b600080fd5b600080fd5b600061ffff82169050919050565b6106ff816106e8565b811461070a57600080fd5b50565b60008135905061071c816106f6565b92915050565b600060208284031215610738576107376106de565b5b60006107468482850161070d565b91505092915050565b600081519050919050565b600082825260208201905092915050565b60005b8381101561078957808201518184015260208101905061076e565b60008484015250505050565b6000601f19601f8301169050919050565b60006107b18261074f565b6107bb818561075a565b93506107cb81856020860161076b565b6107d481610795565b840191505092915050565b6107e8816106e8565b82525050565b60008115159050919050565b610803816107ee565b82525050565b6000608082019050818103600083015261082381876107a6565b9050818103602083015261083781866107a6565b905061084660408301856107df565b61085360608301846107fa565b95945050505050565b600082825260208201905092915050565b60006108788261074f565b610882818561085c565b935061089281856020860161076b565b61089b81610795565b840191505092915050565b6108af816106e8565b82525050565b6108be816107ee565b82525050565b600060808301600083015184820360008601526108e1828261086d565b915050602083015184820360208601526108fb828261086d565b915050604083015161091060408601826108a6565b50606083015161092360608601826108b5565b508091505092915050565b6000602082019050818103600083015261094881846108c4565b905092915050565b600080fd5b600080fd5b7f4e487b7100000000000000000000000000000000000000000000000000000000600052604160045260246000fd5b61099282610795565b810181811067ffffffffffffffff821117156109b1576109b061095a565b5b80604052505050565b60006109c46106d4565b90506109d08282610989565b919050565b600067ffffffffffffffff8211156109f0576109ef61095a565b5b6109f982610795565b9050602081019050919050565b82818337600083830152505050565b6000610a28610a23846109d5565b6109ba565b905082815260208101848484011115610a4457610a43610955565b5b610a4f848285610a06565b509392505050565b600082601f830112610a6c57610a6b610950565b5b8135610a7c848260208601610a15565b91505092915050565b600080600060608486031215610a9e57610a9d6106de565b5b600084013567ffffffffffffffff811115610abc57610abb6106e3565b5b610ac886828701610a57565b935050602084013567ffffffffffffffff811115610ae957610ae86106e3565b5b610af586828701610a57565b9250506040610b068682870161070d565b9150509250925092565b600073ffffffffffffffffffffffffffffffffffffffff82169050919050565b6000610b3b82610b10565b9050919050565b610b4b81610b30565b82525050565b6000602082019050610b666000830184610b42565b92915050565b7f4e487b7100000000000000000000000000000000000000000000000000000000600052602260045260246000fd5b60006002820490506001821680610bb357607f821691505b602082108103610bc657610bc5610b6c565b5b50919050565b60008190508160005260206000209050919050565b60008154610bee81610b9b565b610bf8818661085c565b94506001821660008114610c135760018114610c2957610c5c565b60ff198316865281151560200286019350610c5c565b610c3285610bcc565b60005b83811015610c5457815481890152600182019150602081019050610c35565b808801955050505b50505092915050565b60008160001c9050919050565b600061ffff82169050919050565b6000610c93610c8e83610c65565b610c72565b9050919050565b60008160101c9050919050565b600060ff82169050919050565b6000610cc7610cc283610c9a565b610ca7565b9050919050565b60006080830160008084018583036000870152610ceb8382610be1565b925050600184018583036020870152610d048382610be1565b92505060028401549050610d1781610c80565b610d2460408701826108a6565b50610d2e81610cb4565b610d3b60608701826108b5565b50819250505092915050565b60006020820190508181036000830152610d618184610cce565b905092915050565b7f4f6e6c79207468652061646d696e2063616e2063616c6c20746869732066756e60008201527f6374696f6e000000000000000000000000000000000000000000000000000000602082015250565b6000610dc560258361075a565b9150610dd082610d69565b604082019050919050565b60006020820190508181036000830152610df481610db8565b9050919050565b60006020601f8301049050919050565b600082821b905092915050565b600060088302610e487fffffffffffffffffffffffffffffffffffffffffffffffffffffffffffffffff82610e0b565b610e528683610e0b565b95508019841693508086168417925050509392505050565b6000819050919050565b6000819050919050565b6000610e99610e94610e8f84610e6a565b610e74565b610e6a565b9050919050565b6000819050919050565b610eb383610e7e565b610ec7610ebf82610ea0565b848454610e18565b825550505050565b600090565b610edc610ecf565b610ee7818484610eaa565b505050565b5b81811015610f0b57610f00600082610ed4565b600181019050610eed565b5050565b601f821115610f5057610f2181610bcc565b610f2a84610dfb565b81016020851015610f39578190505b610f4d610f4585610dfb565b830182610eec565b50505b505050565b600082821c905092915050565b6000610f7360001984600802610f55565b1980831691505092915050565b6000610f8c8383610f62565b9150826002028217905092915050565b610fa58261074f565b67ffffffffffffffff811115610fbe57610fbd61095a565b5b610fc88254610b9b565b610fd3828285610f0f565b600060209050601f8311600181146110065760008415610ff4578287015190505b610ffe8582610f80565b865550611066565b601f19841661101486610bcc565b60005b8281101561103c57848901518255600182019150602085019450602081019050611017565b868310156110595784890151611055601f891682610f62565b8355505b6001600288020188555050505b505050505050565b6000606082019050818103600083015261108881866107a6565b9050818103602083015261109c81856107a6565b90506110ab60408301846107df565b949350505050565b600060208201905081810360008301526110cd81846107a6565b90509291505056fea264697066735822122020e385e4f166762566c2f33a946ebdb68836c5ce7f4d94de4af4c9fa98e5614564736f6c63430008120033",
  "linkReferences": {},
  "deployedLinkReferences": {}
}