{
  "_format": "hh-sol-artifact-1",
  "contractName": "VotingPortal",
  "sourceName": "contracts/VotingPortal.sol",
  "abi": [
    {
      "inputs": [
        {
          "internalType": "string[]",
          "name": "candidateNames",
          "type": "string[]"
        }
      ],
      "stateMutability": "nonpayable",
      "type": "constructor"
    },
    {
      "anonymous": false,
      "inputs": [
        {
          "indexed": false,
          "internalType": "string",
          "name": "candidateName",
          "type": "string"
        }
      ],
      "name": "CandidateRecorded",
      "type": "event"
    },
    {
      "anonymous": false,
      "inputs": [
        {
          "indexed": false,
          "internalType": "uint256",
          "name": "candidateIndex",
          "type": "uint256"
        },
        {
          "indexed": false,
          "internalType": "bytes32",
          "name": "_voterId",
          "type": "bytes32"
        }
      ],
      "name": "VoteRecorded",
      "type": "event"
    },
    {
      "anonymous": false,
      "inputs": [
        {
          "indexed": false,
          "internalType": "bool",
          "name": "status",
          "type": "bool"
        }
      ],
      "name": "VotingStatus",
      "type": "event"
    },
    {
      "inputs": [],
      "name": "DisableVoting",
      "outputs": [
        {
          "internalType": "bool",
          "name": "",
          "type": "bool"
        }
      ],
      "stateMutability": "view",
      "type": "function"
    },
    {
      "inputs": [],
      "name": "EnableVoting",
      "outputs": [
        {
          "internalType": "bool",
          "name": "",
          "type": "bool"
        }
      ],
      "stateMutability": "view",
      "type": "function"
    },
    {
      "inputs": [],
      "name": "FinishVoting",
      "outputs": [],
      "stateMutability": "nonpayable",
      "type": "function"
    },
    {
      "inputs": [],
      "name": "StartVoting",
      "outputs": [],
      "stateMutability": "nonpayable",
      "type": "function"
    },
    {
      "inputs": [
        {
          "internalType": "string",
          "name": "candidateName",
          "type": "string"
        }
      ],
      "name": "addCandidate",
      "outputs": [],
      "stateMutability": "nonpayable",
      "type": "function"
    },
    {
      "inputs": [],
      "name": "administrator",
      "outputs": [
        {
          "internalType": "address",
          "name": "",
          "type": "address"
        }
      ],
      "stateMutability": "view",
      "type": "function"
    },
    {
      "inputs": [
        {
          "internalType": "uint256",
          "name": "",
          "type": "uint256"
        }
      ],
      "name": "candidates",
      "outputs": [
        {
          "internalType": "string",
          "name": "name",
          "type": "string"
        },
        {
          "internalType": "uint256",
          "name": "voteCount",
          "type": "uint256"
        }
      ],
      "stateMutability": "view",
      "type": "function"
    },
    {
      "inputs": [],
      "name": "showAllCandidate",
      "outputs": [
        {
          "components": [
            {
              "internalType": "string",
              "name": "name",
              "type": "string"
            },
            {
              "internalType": "uint256",
              "name": "voteCount",
              "type": "uint256"
            }
          ],
          "internalType": "struct VotingPortal.Candidate[]",
          "name": "",
          "type": "tuple[]"
        }
      ],
      "stateMutability": "view",
      "type": "function"
    },
    {
      "inputs": [
        {
          "internalType": "uint256",
          "name": "candidateIndex",
          "type": "uint256"
        },
        {
          "internalType": "bytes32",
          "name": "_voterId",
          "type": "bytes32"
        }
      ],
      "name": "vote",
      "outputs": [],
      "stateMutability": "nonpayable",
      "type": "function"
    },
    {
      "inputs": [
        {
          "internalType": "bytes32",
          "name": "",
          "type": "bytes32"
        }
      ],
      "name": "voters",
      "outputs": [
        {
          "internalType": "bool",
          "name": "voted",
          "type": "bool"
        },
        {
          "internalType": "string",
          "name": "vote",
          "type": "string"
        }
      ],
      "stateMutability": "view",
      "type": "function"
    },
    {
      "inputs": [],
      "name": "winnerName",
      "outputs": [
        {
          "internalType": "string",
          "name": "_winnerName",
          "type": "string"
        }
      ],
      "stateMutability": "view",
      "type": "function"
    }
  ],
  "bytecode": "0x60806040523480156200001157600080fd5b506040516200237a3803806200237a8339818101604052810190620000379190620004f1565b33600260006101000a81548173ffffffffffffffffffffffffffffffffffffffff021916908373ffffffffffffffffffffffffffffffffffffffff16021790555060005b81518110156200011d5760016040518060400160405280848481518110620000a857620000a762000542565b5b60200260200101518152602001600081525090806001815401808255809150506001900390600052602060002090600202016000909190919091506000820151816000019081620000fa9190620007bc565b5060208201518160010155505080806200011490620008d2565b9150506200007b565b506200018c6040518060400160405280601181526020017f41646d696e6973747261746f723a202573000000000000000000000000000000815250600260009054906101000a900473ffffffffffffffffffffffffffffffffffffffff166200019360201b62000b101760201c565b50620009ea565b620002358282604051602401620001ac929190620009b6565b6040516020818303038152906040527f319af333000000000000000000000000000000000000000000000000000000007bffffffffffffffffffffffffffffffffffffffffffffffffffffffff19166020820180517bffffffffffffffffffffffffffffffffffffffffffffffffffffffff83818316178352505050506200023960201b60201c565b5050565b60008151905060006a636f6e736f6c652e6c6f679050602083016000808483855afa5050505050565b6000604051905090565b600080fd5b600080fd5b600080fd5b6000601f19601f8301169050919050565b7f4e487b7100000000000000000000000000000000000000000000000000000000600052604160045260246000fd5b620002c6826200027b565b810181811067ffffffffffffffff82111715620002e857620002e76200028c565b5b80604052505050565b6000620002fd62000262565b90506200030b8282620002bb565b919050565b600067ffffffffffffffff8211156200032e576200032d6200028c565b5b602082029050602081019050919050565b600080fd5b600080fd5b600067ffffffffffffffff8211156200036757620003666200028c565b5b62000372826200027b565b9050602081019050919050565b60005b838110156200039f57808201518184015260208101905062000382565b60008484015250505050565b6000620003c2620003bc8462000349565b620002f1565b905082815260208101848484011115620003e157620003e062000344565b5b620003ee8482856200037f565b509392505050565b600082601f8301126200040e576200040d62000276565b5b815162000420848260208601620003ab565b91505092915050565b6000620004406200043a8462000310565b620002f1565b905080838252602082019050602084028301858111156200046657620004656200033f565b5b835b81811015620004b457805167ffffffffffffffff8111156200048f576200048e62000276565b5b8086016200049e8982620003f6565b8552602085019450505060208101905062000468565b5050509392505050565b600082601f830112620004d657620004d562000276565b5b8151620004e884826020860162000429565b91505092915050565b6000602082840312156200050a57620005096200026c565b5b600082015167ffffffffffffffff8111156200052b576200052a62000271565b5b6200053984828501620004be565b91505092915050565b7f4e487b7100000000000000000000000000000000000000000000000000000000600052603260045260246000fd5b600081519050919050565b7f4e487b7100000000000000000000000000000000000000000000000000000000600052602260045260246000fd5b60006002820490506001821680620005c457607f821691505b602082108103620005da57620005d96200057c565b5b50919050565b60008190508160005260206000209050919050565b60006020601f8301049050919050565b600082821b905092915050565b600060088302620006447fffffffffffffffffffffffffffffffffffffffffffffffffffffffffffffffff8262000605565b62000650868362000605565b95508019841693508086168417925050509392505050565b6000819050919050565b6000819050919050565b60006200069d62000697620006918462000668565b62000672565b62000668565b9050919050565b6000819050919050565b620006b9836200067c565b620006d1620006c882620006a4565b84845462000612565b825550505050565b600090565b620006e8620006d9565b620006f5818484620006ae565b505050565b5b818110156200071d5762000711600082620006de565b600181019050620006fb565b5050565b601f8211156200076c576200073681620005e0565b6200074184620005f5565b8101602085101562000751578190505b620007696200076085620005f5565b830182620006fa565b50505b505050565b600082821c905092915050565b6000620007916000198460080262000771565b1980831691505092915050565b6000620007ac83836200077e565b9150826002028217905092915050565b620007c78262000571565b67ffffffffffffffff811115620007e357620007e26200028c565b5b620007ef8254620005ab565b620007fc82828562000721565b600060209050601f8311600181146200083457600084156200081f578287015190505b6200082b85826200079e565b8655506200089b565b601f1984166200084486620005e0565b60005b828110156200086e5784890151825560018201915060208501945060208101905062000847565b868310156200088e57848901516200088a601f8916826200077e565b8355505b6001600288020188555050505b505050505050565b7f4e487b7100000000000000000000000000000000000000000000000000000000600052601160045260246000fd5b6000620008df8262000668565b91507fffffffffffffffffffffffffffffffffffffffffffffffffffffffffffffffff8203620009145762000913620008a3565b5b600182019050919050565b600082825260208201905092915050565b60006200093d8262000571565b6200094981856200091f565b93506200095b8185602086016200037f565b62000966816200027b565b840191505092915050565b600073ffffffffffffffffffffffffffffffffffffffff82169050919050565b60006200099e8262000971565b9050919050565b620009b08162000991565b82525050565b60006040820190508181036000830152620009d2818562000930565b9050620009e36020830184620009a5565b9392505050565b61198080620009fa6000396000f3fe608060405234801561001057600080fd5b50600436106100a95760003560e01c806375d047f51161007157806375d047f5146101665780637a99c0a614610184578063dfb974a61461018e578063e2ba53f0146101ac578063f53d0a8e146101ca578063fb47c7df146101e8576100a9565b80631b3e3df6146100ae5780633477ee2e146100cc57806337f91f23146100fd578063462e91ec1461012e57806368bb8bb61461014a575b600080fd5b6100b66101f2565b6040516100c39190610e9e565b60405180910390f35b6100e660048036038101906100e19190610f00565b6102ed565b6040516100f4929190610f86565b60405180910390f35b61011760048036038101906101129190610fec565b6103a9565b604051610125929190611034565b60405180910390f35b61014860048036038101906101439190611199565b610462565b005b610164600480360381019061015f91906111e2565b6105df565b005b61016e6107a6565b60405161017b9190611222565b60405180910390f35b61018c6107b9565b005b6101966108ea565b6040516101a39190611222565b60405180910390f35b6101b46108fd565b6040516101c1919061123d565b60405180910390f35b6101d26109b9565b6040516101df91906112a0565b60405180910390f35b6101f06109df565b005b60606001805480602002602001604051908101604052809291908181526020016000905b828210156102e45783829060005260206000209060020201604051806040016040529081600082018054610249906112ea565b80601f0160208091040260200160405190810160405280929190818152602001828054610275906112ea565b80156102c25780601f10610297576101008083540402835291602001916102c2565b820191906000526020600020905b8154815290600101906020018083116102a557829003601f168201915b5050505050815260200160018201548152505081526020019060010190610216565b50505050905090565b600181815481106102fd57600080fd5b9060005260206000209060020201600091509050806000018054610320906112ea565b80601f016020809104026020016040519081016040528092919081815260200182805461034c906112ea565b80156103995780601f1061036e57610100808354040283529160200191610399565b820191906000526020600020905b81548152906001019060200180831161037c57829003601f168201915b5050505050908060010154905082565b60006020528060005260406000206000915090508060000160009054906101000a900460ff16908060010180546103df906112ea565b80601f016020809104026020016040519081016040528092919081815260200182805461040b906112ea565b80156104585780601f1061042d57610100808354040283529160200191610458565b820191906000526020600020905b81548152906001019060200180831161043b57829003601f168201915b5050505050905082565b600260009054906101000a900473ffffffffffffffffffffffffffffffffffffffff1673ffffffffffffffffffffffffffffffffffffffff163373ffffffffffffffffffffffffffffffffffffffff16146104f2576040517f08c379a00000000000000000000000000000000000000000000000000000000081526004016104e99061138d565b60405180910390fd5b600260149054906101000a900460ff1615610542576040517f08c379a00000000000000000000000000000000000000000000000000000000081526004016105399061141f565b60405180910390fd5b6001604051806040016040528083815260200160008152509080600181540180825580915050600190039060005260206000209060020201600090919091909150600082015181600001908161059891906115eb565b506020820151816001015550507fdda13a61256dfebf6c158831feb298f773d5817da6426bbc8827d03af8a28726816040516105d4919061123d565b60405180910390a150565b600080600083815260200190815260200160002090508060000160009054906101000a900460ff1615610647576040517f08c379a000000000000000000000000000000000000000000000000000000000815260040161063e90611709565b60405180910390fd5b60018160000160006101000a81548160ff02191690831515021790555060018054905083108015610679575060008314155b156106f4576001838154811061069257610691611729565b5b90600052602060002090600202016000018160010190816106b39190611783565b50600183815481106106c8576106c7611729565b5b906000526020600020906002020160010160008154809291906106ea9061189a565b9190505550610768565b600160008154811061070957610708611729565b5b906000526020600020906002020160000181600101908161072a9190611783565b5060016000815481106107405761073f611729565b5b906000526020600020906002020160010160008154809291906107629061189a565b91905055505b7fcea104f6b94f266d115ac455684beb345732f816113769834a0d646e5b177e1e83836040516107999291906118f1565b60405180910390a1505050565b600260149054906101000a900460ff1681565b600260009054906101000a900473ffffffffffffffffffffffffffffffffffffffff1673ffffffffffffffffffffffffffffffffffffffff163373ffffffffffffffffffffffffffffffffffffffff1614610849576040517f08c379a00000000000000000000000000000000000000000000000000000000081526004016108409061138d565b60405180910390fd5b6001600260146101000a81548160ff0219169083151502179055507f2dfe9885c48c7bdef7ca39bb9d845fef5137923565bae92bea4840fbc47fb9c2600260149054906101000a900460ff166040516108a29190611222565b60405180910390a16108e86040518060400160405280601381526020017f0a566f74696e6720686173207374617274656400000000000000000000000000815250610bac565b565b600260159054906101000a900460ff1681565b60606001610909610c45565b8154811061091a57610919611729565b5b90600052602060002090600202016000018054610936906112ea565b80601f0160208091040260200160405190810160405280929190818152602001828054610962906112ea565b80156109af5780601f10610984576101008083540402835291602001916109af565b820191906000526020600020905b81548152906001019060200180831161099257829003601f168201915b5050505050905090565b600260009054906101000a900473ffffffffffffffffffffffffffffffffffffffff1681565b600260009054906101000a900473ffffffffffffffffffffffffffffffffffffffff1673ffffffffffffffffffffffffffffffffffffffff163373ffffffffffffffffffffffffffffffffffffffff1614610a6f576040517f08c379a0000000000000000000000000000000000000000000000000000000008152600401610a669061138d565b60405180910390fd5b6001600260156101000a81548160ff0219169083151502179055507f2dfe9885c48c7bdef7ca39bb9d845fef5137923565bae92bea4840fbc47fb9c2600260159054906101000a900460ff16604051610ac89190611222565b60405180910390a1610b0e6040518060400160405280601381526020017f0a566f74696e67206861732073746f7070656400000000000000000000000000815250610bac565b565b610ba88282604051602401610b2692919061191a565b6040516020818303038152906040527f319af333000000000000000000000000000000000000000000000000000000007bffffffffffffffffffffffffffffffffffffffffffffffffffffffff19166020820180517bffffffffffffffffffffffffffffffffffffffffffffffffffffffff8381831617835250505050610ccd565b5050565b610c4281604051602401610bc0919061123d565b6040516020818303038152906040527f41304fac000000000000000000000000000000000000000000000000000000007bffffffffffffffffffffffffffffffffffffffffffffffffffffffff19166020820180517bffffffffffffffffffffffffffffffffffffffffffffffffffffffff8381831617835250505050610ccd565b50565b6000806000905060005b600180549050811015610cc8578160018281548110610c7157610c70611729565b5b9060005260206000209060020201600101541115610cb55760018181548110610c9d57610c9c611729565b5b90600052602060002090600202016001015491508092505b8080610cc09061189a565b915050610c4f565b505090565b60008151905060006a636f6e736f6c652e6c6f679050602083016000808483855afa5050505050565b600081519050919050565b600082825260208201905092915050565b6000819050602082019050919050565b600081519050919050565b600082825260208201905092915050565b60005b83811015610d5c578082015181840152602081019050610d41565b60008484015250505050565b6000601f19601f8301169050919050565b6000610d8482610d22565b610d8e8185610d2d565b9350610d9e818560208601610d3e565b610da781610d68565b840191505092915050565b6000819050919050565b610dc581610db2565b82525050565b60006040830160008301518482036000860152610de88282610d79565b9150506020830151610dfd6020860182610dbc565b508091505092915050565b6000610e148383610dcb565b905092915050565b6000602082019050919050565b6000610e3482610cf6565b610e3e8185610d01565b935083602082028501610e5085610d12565b8060005b85811015610e8c5784840389528151610e6d8582610e08565b9450610e7883610e1c565b925060208a01995050600181019050610e54565b50829750879550505050505092915050565b60006020820190508181036000830152610eb88184610e29565b905092915050565b6000604051905090565b600080fd5b600080fd5b610edd81610db2565b8114610ee857600080fd5b50565b600081359050610efa81610ed4565b92915050565b600060208284031215610f1657610f15610eca565b5b6000610f2484828501610eeb565b91505092915050565b600082825260208201905092915050565b6000610f4982610d22565b610f538185610f2d565b9350610f63818560208601610d3e565b610f6c81610d68565b840191505092915050565b610f8081610db2565b82525050565b60006040820190508181036000830152610fa08185610f3e565b9050610faf6020830184610f77565b9392505050565b6000819050919050565b610fc981610fb6565b8114610fd457600080fd5b50565b600081359050610fe681610fc0565b92915050565b60006020828403121561100257611001610eca565b5b600061101084828501610fd7565b91505092915050565b60008115159050919050565b61102e81611019565b82525050565b60006040820190506110496000830185611025565b818103602083015261105b8184610f3e565b90509392505050565b600080fd5b600080fd5b7f4e487b7100000000000000000000000000000000000000000000000000000000600052604160045260246000fd5b6110a682610d68565b810181811067ffffffffffffffff821117156110c5576110c461106e565b5b80604052505050565b60006110d8610ec0565b90506110e4828261109d565b919050565b600067ffffffffffffffff8211156111045761110361106e565b5b61110d82610d68565b9050602081019050919050565b82818337600083830152505050565b600061113c611137846110e9565b6110ce565b90508281526020810184848401111561115857611157611069565b5b61116384828561111a565b509392505050565b600082601f8301126111805761117f611064565b5b8135611190848260208601611129565b91505092915050565b6000602082840312156111af576111ae610eca565b5b600082013567ffffffffffffffff8111156111cd576111cc610ecf565b5b6111d98482850161116b565b91505092915050565b600080604083850312156111f9576111f8610eca565b5b600061120785828601610eeb565b925050602061121885828601610fd7565b9150509250929050565b60006020820190506112376000830184611025565b92915050565b600060208201905081810360008301526112578184610f3e565b905092915050565b600073ffffffffffffffffffffffffffffffffffffffff82169050919050565b600061128a8261125f565b9050919050565b61129a8161127f565b82525050565b60006020820190506112b56000830184611291565b92915050565b7f4e487b7100000000000000000000000000000000000000000000000000000000600052602260045260246000fd5b6000600282049050600182168061130257607f821691505b602082108103611315576113146112bb565b5b50919050565b7f4f6e6c79207468652061646d696e2063616e2063616c6c20746869732066756e60008201527f6374696f6e000000000000000000000000000000000000000000000000000000602082015250565b6000611377602583610f2d565b91506113828261131b565b604082019050919050565b600060208201905081810360008301526113a68161136a565b9050919050565b7f54686520706f7274616c206973206e6f7420616363657074696e6720616e796d60008201527f6f72652063616e64696461746573000000000000000000000000000000000000602082015250565b6000611409602e83610f2d565b9150611414826113ad565b604082019050919050565b60006020820190508181036000830152611438816113fc565b9050919050565b60008190508160005260206000209050919050565b60006020601f8301049050919050565b600082821b905092915050565b6000600883026114a17fffffffffffffffffffffffffffffffffffffffffffffffffffffffffffffffff82611464565b6114ab8683611464565b95508019841693508086168417925050509392505050565b6000819050919050565b60006114e86114e36114de84610db2565b6114c3565b610db2565b9050919050565b6000819050919050565b611502836114cd565b61151661150e826114ef565b848454611471565b825550505050565b600090565b61152b61151e565b6115368184846114f9565b505050565b5b8181101561155a5761154f600082611523565b60018101905061153c565b5050565b601f82111561159f576115708161143f565b61157984611454565b81016020851015611588578190505b61159c61159485611454565b83018261153b565b50505b505050565b600082821c905092915050565b60006115c2600019846008026115a4565b1980831691505092915050565b60006115db83836115b1565b9150826002028217905092915050565b6115f482610d22565b67ffffffffffffffff81111561160d5761160c61106e565b5b61161782546112ea565b61162282828561155e565b600060209050601f8311600181146116555760008415611643578287015190505b61164d85826115cf565b8655506116b5565b601f1984166116638661143f565b60005b8281101561168b57848901518255600182019150602085019450602081019050611666565b868310156116a857848901516116a4601f8916826115b1565b8355505b6001600288020188555050505b505050505050565b7f566f746572494420616c726561647920766f7465642e00000000000000000000600082015250565b60006116f3601683610f2d565b91506116fe826116bd565b602082019050919050565b60006020820190508181036000830152611722816116e6565b9050919050565b7f4e487b7100000000000000000000000000000000000000000000000000000000600052603260045260246000fd5b600081549050611767816112ea565b9050919050565b60008190508160005260206000209050919050565b818103611791575050611869565b61179a82611758565b67ffffffffffffffff8111156117b3576117b261106e565b5b6117bd82546112ea565b6117c882828561155e565b6000601f8311600181146117f757600084156117e5578287015490505b6117ef85826115cf565b865550611862565b601f1984166118058761176e565b96506118108661143f565b60005b8281101561183857848901548255600182019150600185019450602081019050611813565b868310156118555784890154611851601f8916826115b1565b8355505b6001600288020188555050505b5050505050505b565b7f4e487b7100000000000000000000000000000000000000000000000000000000600052601160045260246000fd5b60006118a582610db2565b91507fffffffffffffffffffffffffffffffffffffffffffffffffffffffffffffffff82036118d7576118d661186b565b5b600182019050919050565b6118eb81610fb6565b82525050565b60006040820190506119066000830185610f77565b61191360208301846118e2565b9392505050565b600060408201905081810360008301526119348185610f3e565b90506119436020830184611291565b939250505056fea2646970667358221220996f85b7098ee4fbdcc4b6e27a133381f517b47268ed81c1c796d41f67f1905264736f6c63430008120033",
  "linkReferences": {},
  "deployedLinkReferences": {}
}